:020000040000FA
:100000002500000BFF0FFF0FFF0FFF0FFF0FFF0F6C
:10001000FF0FFF0FFF0FFF0FFF0FFF0FFF0FFF0F70
:10002000FF0FFF0FFF0FFF0FFF0FFF0FFF0FFF0F60
:10003000FF0FFF0FFF0FFF0FFF0FFF0FFF0FFF0F50
:10004000FF0FFF0FFF0FFF0FFF0FFF0FFF0FFF0F40
:10005000FF0FFF0FFF0FFF0FFF0FFF0FFF0FFF0F30
:10006000FF0FFF0FFF0FFF0FFF0FFF0FFF0FFF0F20
:10007000FF0FFF0FFF0FFF0FFF0FFF0FFF0FFF0F10
:10008000FF0FFF0FFF0FFF0FFF0FFF0FFF0FFF0F00
:10009000FF0FFF0FFF0FFF0FFF0FFF0FFF0FFF0FF0
:1000A000FF0FFF0FFF0FFF0FFF0FFF0FFF0FFF0FE0
:1000B000FF0FFF0FFF0FFF0FFF0FFF0FFF0FFF0FD0
:1000C000FF0FFF0FFF0FFF0FFF0FFF0FFF0FFF0FC0
:1000D000FF0FFF0FFF0FFF0FFF0FFF0FFF0FFF0FB0
:1000E000FF0FFF0FFF0FFF0FFF0FFF0FFF0FFF0FA0
:1000F000FF0FFF0FFF0FFF0FFF0FFF0FFF0FFF0F90
:10010000FF0FFF0FFF0FFF0FFF0FFF0FFF0FFF0F7F
:10011000FF0FFF0FFF0FFF0FFF0FFF0FFF0FFF0F6F
:10012000FF0FFF0FFF0FFF0FFF0FFF0FFF0FFF0F5F
:10013000FF0FFF0FFF0FFF0FFF0FFF0FFF0FFF0F4F
:10014000FF0FFF0FFF0FFF0FFF0FFF0FFF0FFF0F3F
:10015000FF0FFF0FFF0FFF0FFF0FFF0FFF0FFF0F2F
:10016000FF0FFF0FFF0FFF0FFF0FFF0FFF0FFF0F1F
:10017000FF0FFF0FFF0FFF0FFF0FFF0FFF0FFF0F0F
:10018000FF0FFF0FFF0FFF0FFF0FFF0FFF0FFF0FFF
:10019000FF0FFF0FFF0FFF0FFF0FFF0FFF0FFF0FEF
:1001A000FF0FFF0FFF0FFF0FFF0FFF0FFF0FFF0FDF
:1001B000FF0FFF0FFF0FFF0FFF0FFF0FFF0FFF0FCF
:1001C000FF0FFF0FFF0FFF0FFF0FFF0FFF0FFF0FBF
:1001D000FF0FFF0FFF0FFF0FFF0FFF0FFF0FFF0FAF
:1001E0002800640C2700F40AF50AF60A0000E7026A
:1001F000F30AE802F10A0008FF0FFF0FFF0FFF0FDD
:10020000FE0C06000604570CF00906052D0CF0093B
:100210000604FF0CF00906050C0BFF0FFF0FFF0F84
:10022000FF0FFF0FFF0FFF0FFF0FFF0FFF0FFF0F5E
:10023000FF0FFF0FFF0FFF0FFF0FFF0FFF0FFF0F4E
:10024000FF0FFF0FFF0FFF0FFF0FFF0FFF0FFF0F3E
:10025000FF0FFF0FFF0FFF0FFF0FFF0FFF0FFF0F2E
:10026000FF0FFF0FFF0FFF0FFF0FFF0FFF0FFF0F1E
:10027000FF0FFF0FFF0FFF0FFF0FFF0FFF0FFF0F0E
:10028000FF0FFF0FFF0FFF0FFF0FFF0FFF0FFF0FFE
:10029000FF0FFF0FFF0FFF0FFF0FFF0FFF0FFF0FEE
:1002A000FF0FFF0FFF0FFF0FFF0FFF0FFF0FFF0FDE
:1002B000FF0FFF0FFF0FFF0FFF0FFF0FFF0FFF0FCE
:1002C000FF0FFF0FFF0FFF0FFF0FFF0FFF0FFF0FBE
:1002D000FF0FFF0FFF0FFF0FFF0FFF0FFF0FFF0FAE
:1002E000FF0FFF0FFF0FFF0FFF0FFF0FFF0FFF0F9E
:1002F000FF0FFF0FFF0FFF0FFF0FFF0FFF0FFF0F8E
:10030000FF0FFF0FFF0FFF0FFF0FFF0FFF0FFF0F7D
:10031000FF0FFF0FFF0FFF0FFF0FFF0FFF0FFF0F6D
:10032000FF0FFF0FFF0FFF0FFF0FFF0FFF0FFF0F5D
:10033000FF0FFF0FFF0FFF0FFF0FFF0FFF0FFF0F4D
:10034000FF0FFF0FFF0FFF0FFF0FFF0FFF0FFF0F3D
:10035000FF0FFF0FFF0FFF0FFF0FFF0FFF0FFF0F2D
:10036000FF0FFF0FFF0FFF0FFF0FFF0FFF0FFF0F1D
:10037000FF0FFF0FFF0FFF0FFF0FFF0FFF0FFF0F0D
:10038000FF0FFF0FFF0FFF0FFF0FFF0FFF0FFF0FFD
:10039000FF0FFF0FFF0FFF0FFF0FFF0FFF0FFF0FED
:1003A000FF0FFF0FFF0FFF0FFF0FFF0FFF0FFF0FDD
:1003B000FF0FFF0FFF0FFF0FFF0FFF0FFF0FFF0FCD
:1003C000FF0FFF0FFF0FFF0FFF0FFF0FFF0FFF0FBD
:1003D000FF0FFF0FFF0FFF0FFF0FFF0FFF0FFF0FAD
:1003E000FF0FFF0FFF0FFF0FFF0FFF0FFF0FFF0F9D
:0E03F000FF0FFF0FFF0FFF0FFF0FFF0FFF0F9D
:021FFE00F20FE0
:080400000000080001000B00E0
:0203FE00680C89
:00000001FF
